:030000000208D41F
:0C08D400787FE4F6D8FD75810702088CDF
:03000300020800F0
:10080000C0E0C0F0C083C082C0D075D000C000C0BE
:1008100001C002C003C004C005C006C00720B20B5F
:100820001208B020B205B2A230B2FDD007D006D077
:1008300005D004D003D002D001D000D0D0D082D0D7
:0608400083D0F0D0E0328D
:030013000208469A
:10084600C0E0C0F0C083C082C0D075D000C000C078
:1008560001C002C003C004C005C006C00720B30B18
:100866001208B020B305B2A330B3FDD007D006D02E
:1008760005D004D003D002D001D000D0D0D082D091
:0608860083D0F0D0E03247
:10088C00D2AFD2A8D2AA20B10B1208B020B105B2B7
:10089C00A030B1FD20B0EF1208B020B0E9B2A12019
:0408AC00B0E480FB39
:0408B0007F327E0015
:1008B400E4FDFCC3ED9FEC9E5015E4FBFA0BBB007A
:0F08C400010AEB64724A70F50DBD00010C80E46F
:0108D3002202
:00000001FF
