:03000000020800F3
:0C080000787FE4F6D8FD758120020847DF
:0808D600C10001080001090046
:03000B0002088C5C
:10088C00C0E0C0D0758CEE758A0020001620B10E29
:10089C000508E5086464701CB2A0D20080167508C7
:1008AC0000801130B10B0509E509B46407C2008062
:0908BC0003750900D0D0D0E03230
:1008C500758901758CEEE4F58AD28CD2A9D2AF80F8
:0108D500FE24
:10080C000208C5E493A3F8E493A34003F68001F235
:10081C0008DFF48029E493A3F85407240CC8C333ED
:10082C00C4540F4420C8834004F456800146F6DFBC
:10083C00E4800B01020408102040809008D6E47E6E
:10084C00019360BCA3FF543F30E509541FFEE493B1
:10085C00A360010ECF54C025E060A840B8E493A378
:10086C00FAE493A3F8E493A3C8C582C8CAC583CAA3
:10087C00F0A3C8C582C8CAC583CADFE9DEE780BE5B
:0108DE000019
:00000001FF
