:030000000208866D
:0C088600787FE4F6D8FD758107020800B9
:10086600E4FDFCC3ED9FEC9E5015E4FBFA0BBB00C8
:0F087600010AEB64704A70F50DBD00010C80E4BF
:010885002250
:10080000D2A2D2A3D2A47580067FBC7E0212086653
:10081000C2A2D2A3D2A475805B120866D2A2C2A3E0
:10082000D2A475804F120866C2A2C2A3D2A475805A
:1008300066120866D2A2D2A3C2A475806D120866A1
:10084000C2A2D2A3C2A475807D120866D2A2C2A39E
:10085000C2A4758007120866C2A2C2A3C2A4758092
:060860007F120866809A79
:00000001FF
