:03000000020800F3
:0C080000787FE4F6D8FD75810D020847F2
:0E08F40002090000020B0000010D00010800C7
:03000B0002088C5C
:10088C00C0E0C0D0050AE50A70020509050CE50CAC
:10089C007002050BC3E50A940AE509648094804054
:1008AC000BB2A0750D01750900750A00C3E50C9417
:1008BC0064E50B64809480400BB2A1750B00750C41
:0908CC0000750801D0D0D0E03223
:1008D50075A882758902E4F58CD28CE50D6005E476
:0F08E500F50DB2A2E50860F3E4F508B2A380ECCC
:10080C000208D5E493A3F8E493A34003F68001F225
:10081C0008DFF48029E493A3F85407240CC8C333ED
:10082C00C4540F4420C8834004F456800146F6DFBC
:10083C00E4800B01020408102040809008F4E47E50
:10084C00019360BCA3FF543F30E509541FFEE493B1
:10085C00A360010ECF54C025E060A840B8E493A378
:10086C00FAE493A3F8E493A3C8C582C8CAC583CAA3
:10087C00F0A3C8C582C8CAC583CADFE9DEE780BE5B
:0109020000F4
:00000001FF
