:03000000020800F3
:0C080000787FE4F6D8FD758117020847E8
:1009E60010080004000200030005000400020004D1
:0209F6000005FA
:10091100ED25E0FFEC338F82F583120982FFAEF003
:100921004E700475803F22EF64014E70047580069D
:1009310022EF64024E700475805B22EF64034E70F7
:100941000475804F22EF64044E700475806622EFB7
:1009510064054E700475806D22EF64064E70047557
:10096100807D22EF64074E700475800722EF6408D2
:100971004E700475807F22EF64094E700375806F9D
:010981002253
:10088C00D2A2D2A3D2A47B007A007908E4FDFC1298
:10089C0009111209C5C2A2D2A3D2A47D011209BAB0
:1008AC00D2A2C2A3D2A47D021209BAC2A2C2A3D2FE
:1008BC00A47B007A0079087D031209C0D2A2D2A3CE
:1008CC00C2A47B007A0079087D041209C0C2A2D2AE
:1008DC00A3C2A47B007A0079087D051209C0D2A2BC
:1008EC00C2A3C2A47B007A0079087D061209C0C29B
:1008FC00A2C2A3C2A47B007A0079087D077C0012F7
:05090C0009110209C5FC
:0B09BA007B007A0079087C0012091114
:1009C500E4FFFE758901758AFD758C4BD28C308DDF
:1009D500FDC28CC28D0FBF00010EEF64144E70E393
:0109E50022EF
:10080C0002088CE493A3F8E493A34003F68001F26E
:10081C0008DFF48029E493A3F85407240CC8C333ED
:10082C00C4540F4420C8834004F456800146F6DFBC
:10083C00E4800B01020408102040809009E6E47E5D
:10084C00019360BCA3FF543F30E509541FFEE493B1
:10085C00A360010ECF54C025E060A840B8E493A378
:10086C00FAE493A3F8E493A3C8C582C8CAC583CAA3
:10087C00F0A3C8C582C8CAC583CADFE9DEE780BE5B
:0109F80000FE
:10098200BB0110E58229F582E5833AF583E0F5F0B3
:10099200A3E0225009E92582F886F008E622BBFE90
:1009A2000AE92582F8E2F5F008E222E5832AF583D6
:0809B200E993F5F0A3E993229B
:00000001FF
