:03000000020154A6
:0C015400787FE4F6D8FD758107020003F7
:100003001200F612016A7B54E4FDFF1201607B4586
:100013007D01E4FF1201607B207D02E4FF12016099
:100023007B487D03E4FF1201607B417D04E4FF1202
:1000330001607B467D05E4FF1201607B417D06E4A0
:10004300FF1201607B207D07E4FF1201607B597D75
:1000530008E4FF1201607B457D09E4FF1201607B28
:10006300457D0AE4FF1201607B207D0BE4FF120152
:10007300607B6B7D0CE4FF1201607B417D0DE4FF2F
:10008300120160E4FD7F011201107B4BE4FD7F014F
:100093001201607B487D017F011201607B417D027B
:1000A3007F011201607B577D037F011201607B5347
:1000B3007D047F011201607B487D057F0112016091
:1000C3007B4C7D067F011201607B417D077F01121E
:0600D3000160E4FEFF22C3
:1000D900E4FFFEE4FDFC0DBD00010CED64464C702F
:0C00E900F50FBF00010EEF64324E70E70F
:0100F50022E8
:0301720012012552
:030175000200D9AC
:0D014700EF54F0F580D2A7120175C2A72277
:10012500AB07C2A6C2A5120147EBC454F0FF0201FA
:010135004782
:10013600AB07D2A6C2A5120147EBC454F0FF0201D9
:010146004771
:1000F6007F281201727F0C1201727F0612012512EF
:0A01060001757F0112012502017549
:10011000EF7006ED2480FA8007BF0104ED24C0FAD9
:05012000AF0202012501
:0A016000A903120110AF01020136DD
:08016A007F011201250201755D
:00000001FF
