:030000000200EB10
:0C00EB00787FE4F6D8FD75810702000361
:10000300E4F58012008D7F451200DD1200B27F4EB1
:100013001200DD1200B27F471200DD1200B27F52E0
:100023001200DD1200B27F2E1200DD1200B27F4EED
:100033001200DD1200B27F411200DD1200B27F56C2
:100043001200DD1200B27F451200DD1200B27F45BF
:100053001200DD1200B27F441200DD1200B27F20D5
:100063001200DD1200B27F4B1200DD1200B27F4896
:100073001200DD1200B27F411200DD1200B27F4E8A
:0A0083001200DD1200B2E4FEFF22BD
:0300AF001200CF6D
:1000B200E4FFFEE4FDFC0DBD00010CED64644C7038
:0C00C200F50FBF00010EEF64644E70E704
:0100CE00220F
:0300F7000200B252
:0E00CF008F80C2A6C2A5D2A71200F7C2A72238
:0E00DD008F80D2A6C2A5D2A71200F7C2A7221A
:10008D007F011200AF7F381200AF7F0E1200CF122A
:10009D0000B27F101200CF1200B27F801200CF028B
:0200AD0000B29F
:00000001FF
