:030000000208D51E
:0C08D500787FE4F6D8FD7581070208006A
:0B0869001208C71208747F4E1208C767
:10087400E4FFFEE4FDFC0DBD00010CED64644C706E
:0C088400F50FBF00010EEF64644E70E73A
:010890002245
:0308E10002087496
:0E08B9008F80C2A6C2A5D2A71208E1C2A72254
:0E08C7008F80D2A6C2A5D2A71208E1C2A72236
:100891007F011208B91208747F381208B91208745E
:1008A1007F0E1208B91208747F101208B912087469
:0808B1007F801208B9020874EF
:10080000E4F5801208917F451208697F471208C7F6
:100810001208747F521208C71208747F2E120869DA
:100820007F411208C71208747F561208C712087455
:100830007F451208C71208747F451208C712087452
:100840007F441208C71208747F201208C712087468
:100850007F4B1208C71208747F481208C712087429
:090860007F41120869E4FEFF2249
:00000001FF
