:03000000020A826F
:0C0A8200787FE4F6D8FD758123020AC9D4
:060B2E00042005D0AC36E6
:100B0E00E4FFFE758901E4F58AF58CD28C308DFDFB
:0F0B1E00C28DC28C0FBF00010EEF640A4E70E44F
:010B2D0022A5
:0809B1008F0B8E0A8D098C08E2
:1009B900E4F51EF51FE4FFFEFDFCAB0BAA0AA9092D
:1009C900A808D31208CE4044E47B0AFAF9F8AF0B21
:1009D900AE0AAD09AC0812083CAE02AF03E51F250B
:1009E900E0240EF8A60608A607AF0BAE0AAD09ACBF
:1009F90008E47B0AFAF9F812083C8F0B8E0A8D0974
:100A09008C08051FE51F70AD051E80A9E50D25E0C1
:100A1900240EF8E6FE08E6FF4E700475803F22EFCB
:100A290064014E700475800622EF64024E700475ED
:100A3900805B22EF64034E700475804F22EF6404DB
:100A49004E700475806622EF64054E700475806DE2
:100A590022EF64064E700475807D22EF64074E70A4
:100A69000475800722EF64084E700475807F22EFB9
:080A790064094E700375806FE3
:010A81002252
:1008DF00D2A2D2A3D2A4AF23AE22AD21AC20750CED
:1008EF0000750D071209B1120B0EC2A2D2A3D2A42A
:1008FF00AF23AE22AD21AC20750C00750D06120989
:10090F00B1120B0ED2A2C2A3D2A4AF23AE22AD213D
:10091F00AC20750C00750D051209B1120B0EC2A299
:10092F00C2A3D2A4AF23AE22AD21AC20750C0075AB
:10093F000D041209B1120B0ED2A2D2A3C2A4AF237F
:10094F00AE22AD21AC20750C00750D031209B1124A
:10095F000B0EC2A2D2A3C2A4AF23AE22AD21AC20F4
:10096F00750C00750D021209B1120B0ED2A2C2A3A3
:10097F00C2A4AF23AE22AD21AC20750C00750D01C2
:10098F001209B1120B0EC2A2C2A3C2A4AF23AE2290
:10099F00AD21AC20E4F50CF50D1209B1120B0E02CE
:0209AF0008DF5F
:100A8E000208DFE493A3F8E493A34003F68001F297
:100A9E0008DFF48029E493A3F85407240CC8C33369
:100AAE00C4540F4420C8834004F456800146F6DF38
:100ABE00E4800B0102040810204080900B2EE47E8F
:100ACE00019360BCA3FF543F30E509541FFEE4932D
:100ADE00A360010ECF54C025E060A840B8E493A3F4
:100AEE00FAE493A3F8E493A3C8C582C8CAC583CA1F
:100AFE00F0A3C8C582C8CAC583CADFE9DEE780BED7
:010B340000C0
:1008000075F008758200EF2FFFEE33FECD33CDCCAF
:1008100033CCC58233C5829BED9AEC99E582984032
:100820000CF582EE9BFEED9AFDEC99FC0FD5F0D60F
:10083000E4CEFBE4CDFAE4CCF9A88222B800C1B939
:100840000059BA002DEC8BF084CFCECDFCE5F0CB77
:10085000F97818EF2FFFEE33FEED33FDEC33FCEBB0
:1008600033FB10D703994004EB99FB0FD8E5E4F96B
:10087000FA227818EF2FFFEE33FEED33FDEC33FC58
:10088000C933C910D7059BE99A4007EC9BFCE99A4C
:10089000F90FD8E0E4C9FAE4CCFB2275F010EF2F91
:1008A000FFEE33FEED33FDCC33CCC833C810D70791
:1008B0009BEC9AE899400AED9BFDEC9AFCE899F8CC
:0E08C0000FD5F0DAE4CDFBE4CCFAE4C8F9225F
:1008CE00EB9FF5F0EA9E42F0E99D42F0E89C45F080
:0108DE0022F7
:00000001FF
