:0300000002015D9D
:0C015D00787FE4F6D8FD758107020003EE
:100003001201121201737B48E4FDFF1201697B6543
:100013007D01E4FF1201697B6C7D02E4FF1201693B
:100023007B6C7D03E4FF1201697B6F7D04E4FF12A7
:1000330001697B207D05E4FF1201697B457D06E4B0
:10004300FF1201697B767D07E4FF1201697B657D01
:1000530008E4FF1201697B727D09E4FF1201697BE9
:10006300797D0AE4FF1201697B6F7D0BE4FF1201C6
:10007300697B6E7D0CE4FF1201697B657D0DE4FFF6
:100083001201697B48E4FD7F011201697B6F7D01E9
:100093007F011201697B777D027F011201697B2059
:1000A3007D037F011201697B417D047F0112016998
:1000B3007B727D057F011201697B657D067F0112DD
:1000C30001697B207D077F011201697B597D087FD0
:1000D300011201697B6F7D097F011201697B757DC7
:1000E3000A7F011201697B3F7D0B7F0112016902C7
:0200F300000308
:1000F500E4FFFEE4FDFC0DBD00010CED64644C70F5
:0C010500F50FBF00010EEF64644E70E7C0
:0101110022CB
:03017B001201412D
:03017E000200F587
:0E0141008F80C2A6C2A5D2A712017EC2A7223D
:0E014F008F80D2A6C2A5D2A712017EC2A7221F
:100112007F3812017B7F0C12017B7F061201411294
:0A012200017E7F0112014102017EFF
:10012C00EF7006ED2480FB8007BF0104ED24C0FBBB
:05013C00AF03020141C8
:0A016900AA0312012CAF0202014F9D
:080173007F0112014102017E2F
:00000001FF
