:030000000200E912
:0C00E900787FE4F6D8FD75810A02000360
:10008B0020202057656C636F6D65202020004E612A
:0A009B0076656564206B68616E00F5
:1000030012006D7F801200CD7BFF7A00798B120086
:10001300487FC01200CD7BFF7A007999120048E433
:10002300FFFE0FBF00010EBE75F8BF30F57F011252
:1000330000CDE4FEFFC3EF9430EE947550C50FBFBF
:0500430000010E80F039
:10006D007F381200CD7F0E1200CD7F011200CD7FA3
:0E007D00061200CD7F0C1200CD7F800200CD58
:0E00CD008F80C2A6C2A5D2A71200BEC2A72273
:0E00DB008F80D2A6C2A5D2A71200BEC2A72255
:100048008B088A09890AAB08AA09A90A1200A560BF
:1000580013050AE50A7002050914F91200A5FF1232
:0500680000DB80E22234
:0E00BE00E4FFFE0FBF00010EBE17F8BF71F584
:0100CC002211
:1000A500BB010689828A83E0225002E722BBFE0259
:0900B500E32289828A83E493228C
:00000001FF
