:0300000002027782
:0C027700787FE4F6D8FD75810A02022AA7
:10023B00437573746F6D204368617261637465728B
:01024B0000B2
:10022A001201F87BFF7A02793B1201D31200038094
:01023A00FBC8
:1001F8007F3812025B7F0C12025B7F0612025B7F64
:090208000112025B7F8002025B1F
:0E025B008F80C2A6C2A5D2A712024CC2A72253
:0E0269008F80D2A6C2A5D2A712024CC2A72235
:1001D3008B088A09890AAB08AA09A90A12021160C5
:1001E30013050AE50A7002050914F9120211FF1238
:0501F300026980E22218
:0E024C00E4FFFE0FBF00010EBE17F8BF71F5F4
:01025A002281
:100003007F4012025BE4FF1202697F0A1202697FDA
:100013001F1202697F1F1202697F0E1202697F0499
:10002300120269E4FF120269E4FF1202697FC0123F
:10003300025BE4FF12026912024C7F4812025B7FEB
:10004300041202697F0E1202697F0E1202697F0E8B
:100053001202697F1F120269E4FF1202697F041210
:100063000269E4FF1202697FC212025B7F0112027E
:100073006912024C7F5012025B7F1F1202697F15C7
:100083001202697F1F1202697F1F1202697F0E121B
:1000930002697F0A1202697F1B120269E4FF1202DE
:1000A300697FC412025B7F0212026912024C7F58FD
:1000B30012025BE4FF1202697F011202697F0312DD
:1000C30002697F161202697F1C1202697F081202FD
:1000D30069E4FF120269E4FF1202697FC612025B40
:1000E3007F0312026912024C7F6012025B7F0112CE
:1000F30002697F031202697F0F1202697F0F1202E6
:10010300697F0F1202697F031202697F011202697C
:10011300E4FF1202697FC812025B7F0412026912B4
:10012300024C7F6812025B7F011202697F03120295
:10013300697F051202697F091202697F0912026948
:100143007F0B1202697F1B1202697F181202697FFB
:10015300CA12025B7F0512026912024C7F701202FF
:100163005BE4FF1202697F0E1202697F15120269B6
:100173007F1B1202697F0E1202697F0E120269E46D
:10018300FF120269E4FF1202697FCC12025B7F0651
:1001930012026912024C7F7812025B7F0E1202690F
:1001A3007F111202697F111202697F1F1202697F98
:1001B3001B1202697F1B1202697F1F120269E4FF8F
:1001C3001202697FCE12025B7F0712026902024CA0
:10021100BB010689828A83E0225002E722BBFE02EB
:09022100E32289828A83E493221E
:00000001FF
