:030000000208AB48
:0C08AB00787FE4F6D8FD7581090208F2A0
:0409440002080000A5
:03000B00020800E8
:10080000C0E0C0D00509E5097002050864CD4508BF
:100810007009C2A2C2A3C2A47580FFE509B49A0EF2
:10082000E508B40109D2A2C2A3C2A47580FFE509FC
:10083000B4670EE508B40209C2A2D2A3C2A47580AF
:10084000FFE509B4340EE508B40309D2A2D2A3C26D
:10085000A47580FFE509B4010EE508B40409C2A23D
:10086000C2A3D2A47580FFE509B4CE0EE508B40496
:1008700009D2A2C2A3D2A47580FFE509B4A00EE5F7
:1008800008B40509C2A2D2A3D2A47580FFE509B4B9
:100890006D14E508B4060FD2A2D2A3D2A47580FFCE
:0B08A000750800750900D0D0D0E032D0
:0D093700758902758CF775A882D28C80FE40
:1008B700020937E493A3F8E493A34003F68001F217
:1008C70008DFF48029E493A3F85407240CC8C33342
:1008D700C4540F4420C8834004F456800146F6DF11
:1008E700E4800B0102040810204080900944E47E54
:1008F700019360BCA3FF543F30E509541FFEE49306
:10090700A360010ECF54C025E060A840B8E493A3CC
:10091700FAE493A3F8E493A3C8C582C8CAC583CAF7
:10092700F0A3C8C582C8CAC583CADFE9DEE780BEAF
:0109480000AE
:00000001FF
